{
  "contractName": "GenftFactory",
  "abi": [
    {
      "anonymous": false,
      "inputs": [
        {
          "indexed": true,
          "internalType": "address",
          "name": "_from",
          "type": "address"
        },
        {
          "indexed": true,
          "internalType": "address",
          "name": "_instance",
          "type": "address"
        }
      ],
      "name": "InstanceCreated",
      "type": "event"
    },
    {
      "anonymous": false,
      "inputs": [
        {
          "indexed": true,
          "internalType": "address",
          "name": "previousOwner",
          "type": "address"
        },
        {
          "indexed": true,
          "internalType": "address",
          "name": "newOwner",
          "type": "address"
        }
      ],
      "name": "OwnershipTransferred",
      "type": "event"
    },
    {
      "inputs": [
        {
          "internalType": "uint256",
          "name": "",
          "type": "uint256"
        }
      ],
      "name": "instances",
      "outputs": [
        {
          "internalType": "contract Genft",
          "name": "",
          "type": "address"
        }
      ],
      "stateMutability": "view",
      "type": "function",
      "constant": true
    },
    {
      "inputs": [],
      "name": "owner",
      "outputs": [
        {
          "internalType": "address",
          "name": "",
          "type": "address"
        }
      ],
      "stateMutability": "view",
      "type": "function",
      "constant": true
    },
    {
      "inputs": [],
      "name": "renounceOwnership",
      "outputs": [],
      "stateMutability": "nonpayable",
      "type": "function"
    },
    {
      "inputs": [
        {
          "internalType": "address",
          "name": "newOwner",
          "type": "address"
        }
      ],
      "name": "transferOwnership",
      "outputs": [],
      "stateMutability": "nonpayable",
      "type": "function"
    },
    {
      "inputs": [
        {
          "internalType": "string",
          "name": "_tokenName",
          "type": "string"
        },
        {
          "internalType": "string",
          "name": "_tokenSymbol",
          "type": "string"
        },
        {
          "internalType": "uint8",
          "name": "_minimumDifficultyBits",
          "type": "uint8"
        },
        {
          "internalType": "uint8",
          "name": "_genomeBitLength",
          "type": "uint8"
        },
        {
          "internalType": "uint256",
          "name": "_firstPrice",
          "type": "uint256"
        },
        {
          "internalType": "uint256",
          "name": "_priceIncrement",
          "type": "uint256"
        },
        {
          "internalType": "string",
          "name": "_baseTokenURI",
          "type": "string"
        },
        {
          "internalType": "string",
          "name": "_uiConfigUri",
          "type": "string"
        },
        {
          "internalType": "uint256",
          "name": "_commissionPercentage",
          "type": "uint256"
        }
      ],
      "name": "get",
      "outputs": [],
      "stateMutability": "nonpayable",
      "type": "function"
    },
    {
      "inputs": [
        {
          "internalType": "address",
          "name": "addr",
          "type": "address"
        }
      ],
      "name": "setWalletAddress",
      "outputs": [],
      "stateMutability": "nonpayable",
      "type": "function"
    }
  ],
  "bytecode": "0x608060405234801561001057600080fd5b50600061001b61006a565b600080546001600160a01b0319166001600160a01b0383169081178255604051929350917f8be0079c531659141344cd1fd0a4f28419497f9722a3daafe3b4186f6b6457e0908290a35061006e565b3390565b613e578061007d6000396000f3fe60806040523480156200001157600080fd5b50600436106200006a5760003560e01c80634171ff58146200006f578063715018a614620000885780638da5cb5b1462000092578063a2f7b3a514620000b4578063ac1a386a14620000cb578063f2fde38b14620000e2575b600080fd5b6200008662000080366004620004c6565b620000f9565b005b62000086620001df565b6200009c62000278565b604051620000ab919062000625565b60405180910390f35b6200009c620000c5366004620005be565b62000287565b62000086620000dc36600462000496565b620002b2565b62000086620000f336600462000496565b6200031a565b60008989898989898989600260009054906101000a90046001600160a01b03168a6040516200012890620003e8565b6200013d9a9998979695949392919062000639565b604051809103906000f0801580156200015a573d6000803e3d6000fd5b5060018054808201825560009182527fb10e2d527612073b26eecdfd717e6a320cf44b4afac2b0732d9fcbe2b7fa0cf60180546001600160a01b0319166001600160a01b0384169081179091556040519293509133917f543b35b6b9f1ac11b5f0a029c292d01d577f993f2778d5ffc579ea3136182e8b91a350505050505050505050565b620001e9620003e4565b6001600160a01b0316620001fc62000278565b6001600160a01b0316146200022e5760405162461bcd60e51b815260040162000225906200071a565b60405180910390fd5b600080546040516001600160a01b03909116907f8be0079c531659141344cd1fd0a4f28419497f9722a3daafe3b4186f6b6457e0908390a3600080546001600160a01b0319169055565b6000546001600160a01b031690565b600181815481106200029857600080fd5b6000918252602090912001546001600160a01b0316905081565b620002bc620003e4565b6001600160a01b0316620002cf62000278565b6001600160a01b031614620002f85760405162461bcd60e51b815260040162000225906200071a565b600280546001600160a01b0319166001600160a01b0392909216919091179055565b62000324620003e4565b6001600160a01b03166200033762000278565b6001600160a01b031614620003605760405162461bcd60e51b815260040162000225906200071a565b6001600160a01b038116620003895760405162461bcd60e51b81526004016200022590620006d4565b600080546040516001600160a01b03808516939216917f8be0079c531659141344cd1fd0a4f28419497f9722a3daafe3b4186f6b6457e091a3600080546001600160a01b0319166001600160a01b0392909216919091179055565b3390565b6136bc806200076683390190565b600082601f83011262000407578081fd5b813567ffffffffffffffff808211156200042557620004256200074f565b604051601f8301601f1916810160200182811182821017156200044c576200044c6200074f565b60405282815284830160200186101562000464578384fd5b82602086016020830137918201602001929092529392505050565b803560ff811681146200049157600080fd5b919050565b600060208284031215620004a8578081fd5b81356001600160a01b0381168114620004bf578182fd5b9392505050565b60008060008060008060008060006101208a8c031215620004e5578485fd5b893567ffffffffffffffff80821115620004fd578687fd5b6200050b8d838e01620003f6565b9a5060208c013591508082111562000521578687fd5b6200052f8d838e01620003f6565b99506200053f60408d016200047f565b98506200054f60608d016200047f565b975060808c0135965060a08c0135955060c08c013591508082111562000573578485fd5b620005818d838e01620003f6565b945060e08c013591508082111562000597578384fd5b50620005a68c828d01620003f6565b9250506101008a013590509295985092959850929598565b600060208284031215620005d0578081fd5b5035919050565b60008151808452815b81811015620005fe57602081850181015186830182015201620005e0565b81811115620006105782602083870101525b50601f01601f19169290920160200192915050565b6001600160a01b0391909116815260200190565b60006101408083526200064f8184018e620005d7565b9050828103602084015262000665818d620005d7565b905060ff8b16604084015260ff8a1660608401528860808401528760a084015282810360c0840152620006998188620005d7565b905082810360e0840152620006af8187620005d7565b6001600160a01b03959095166101008401525050610120015298975050505050505050565b60208082526026908201527f4f776e61626c653a206e6577206f776e657220697320746865207a65726f206160408201526564647265737360d01b606082015260800190565b6020808252818101527f4f776e61626c653a2063616c6c6572206973206e6f7420746865206f776e6572604082015260600190565b634e487b7160e01b600052604160045260246000fdfe60806040523480156200001157600080fd5b50604051620036bc380380620036bc83398101604081905262000034916200049f565b89518a908a906200004d9060009060208501906200031f565b508051620000639060019060208401906200031f565b50506007805460ff191690555060016200008360ff8a16610100620006e1565b62000090906002620005f7565b6200009c9190620006e1565b600a55600b805460ff191660ff8916179055600c869055600d8590558251620000cd90600e9060208601906200031f565b50600f8190558351620000e89060109060208701906200031f565b506200010d6000805160206200369c833981519152620001076200018a565b6200018e565b620001176200018a565b601280546001600160a01b0319166001600160a01b0392909216919091179055620001446000836200018e565b601180546001600160a01b0319166001600160a01b0384161790556200017a6000805160206200369c833981519152836200018e565b5050505050505050505062000764565b3390565b620001a58282620001d160201b62000f891760201c565b6000828152600960209081526040909120620001cc91839062000f97620001e1821b17901c565b505050565b620001dd828262000201565b5050565b6000620001f8836001600160a01b0384166200028d565b90505b92915050565b6200020d8282620002dc565b620001dd5760008281526008602090815260408083206001600160a01b03851684529091529020805460ff19166001179055620002496200018a565b6001600160a01b0316816001600160a01b0316837f2f8788117e7eff1d82e926ec794901d17c78024a50270940304540a733656f0d60405160405180910390a45050565b60006200029b838362000307565b620002d357508154600181810184556000848152602080822090930184905584548482528286019093526040902091909155620001fb565b506000620001fb565b60009182526008602090815260408084206001600160a01b0393909316845291905290205460ff1690565b60009081526001919091016020526040902054151590565b8280546200032d90620006fb565b90600052602060002090601f0160209004810192826200035157600085556200039c565b82601f106200036c57805160ff19168380011785556200039c565b828001600101855582156200039c579182015b828111156200039c5782518255916020019190600101906200037f565b50620003aa929150620003ae565b5090565b5b80821115620003aa5760008155600101620003af565b80516001600160a01b0381168114620003dd57600080fd5b919050565b600082601f830112620003f3578081fd5b81516001600160401b03808211156200041057620004106200074e565b6040516020601f8401601f19168201810183811183821017156200043857620004386200074e565b60405283825285840181018710156200044f578485fd5b8492505b8383101562000472578583018101518284018201529182019162000453565b838311156200048357848185840101525b5095945050505050565b805160ff81168114620003dd57600080fd5b6000806000806000806000806000806101408b8d031215620004bf578586fd5b8a516001600160401b0380821115620004d6578788fd5b620004e48e838f01620003e2565b9b5060208d0151915080821115620004fa578788fd5b620005088e838f01620003e2565b9a506200051860408e016200048d565b99506200052860608e016200048d565b985060808d0151975060a08d0151965060c08d01519150808211156200054c578586fd5b6200055a8e838f01620003e2565b955060e08d015191508082111562000570578485fd5b506200057f8d828e01620003e2565b935050620005916101008c01620003c5565b91506101208b015190509295989b9194979a5092959850565b80825b6001808611620005be5750620005ee565b818704821115620005d357620005d362000738565b80861615620005e157918102915b9490941c938002620005ad565b94509492505050565b6000620001f860001984846000826200061357506001620006da565b816200062257506000620006da565b81600181146200063b576002811462000646576200067a565b6001915050620006da565b60ff8411156200065a576200065a62000738565b6001841b91508482111562000673576200067362000738565b50620006da565b5060208310610133831016604e8410600b8410161715620006b2575081810a83811115620006ac57620006ac62000738565b620006da565b620006c18484846001620005aa565b808604821115620006d657620006d662000738565b0290505b9392505050565b600082821015620006f657620006f662000738565b500390565b6002810460018216806200071057607f821691505b602082108114156200073257634e487b7160e01b600052602260045260246000fd5b50919050565b634e487b7160e01b600052601160045260246000fd5b634e487b7160e01b600052604160045260246000fd5b612f2880620007746000396000f3fe60806040526004361061023a5760003560e01c80636ad5b3ea1161012e578063b04df168116100ab578063d547cfb71161006f578063d547cfb71461064f578063d575fe6414610664578063d7eb3f3a14610679578063e63ab1e91461068e578063e985e9c5146106a35761023a565b8063b04df168146105ba578063b88d4fde146105cf578063c87b56dd146105ef578063ca15c8731461060f578063d547741f1461062f5761023a565b806391d14854116100f257806391d148541461053b57806395d89b411461055b578063a217fddf14610570578063a22cb46514610585578063a71e2b49146105a55761023a565b80636ad5b3ea146104be57806370a08231146104d357806377097fc8146104f35780638456cb59146105065780639010d07c1461051b5761023a565b806339a3da4a116101bc5780634f64b2be116101805780634f64b2be146104325780635c975abb146104525780636352211e14610467578063664ed40b1461048757806367973d2f1461049c5761023a565b806339a3da4a146103a85780633bb3a24d146103bd5780633f4ba83a146103dd57806342842e0e146103f257806342966c68146104125761023a565b806323b872dd1161020357806323b872dd14610306578063248a9ca314610326578063280d62ac146103535780632f2ff15d1461036857806336568abe146103885761023a565b8062e9f7391461023f57806301ffc9a71461027557806306fdde0314610295578063081812fc146102b7578063095ea7b3146102e4575b600080fd5b34801561024b57600080fd5b5061025f61025a3660046122e8565b6106c3565b60405161026c9190612533565b60405180910390f35b34801561028157600080fd5b5061025f610290366004612343565b6106da565b3480156102a157600080fd5b506102aa6106eb565b60405161026c9190612547565b3480156102c357600080fd5b506102d76102d23660046122e8565b61077d565b60405161026c91906124e2565b3480156102f057600080fd5b506103046102ff3660046122bf565b6107c9565b005b34801561031257600080fd5b506103046103213660046121d1565b610861565b34801561033257600080fd5b506103466103413660046122e8565b610899565b60405161026c919061253e565b34801561035f57600080fd5b506103466108ae565b34801561037457600080fd5b50610304610383366004612300565b6108b4565b34801561039457600080fd5b506103046103a3366004612300565b6108d6565b3480156103b457600080fd5b506103466108f8565b3480156103c957600080fd5b506102aa6103d83660046122e8565b6108fe565b3480156103e957600080fd5b50610304610909565b3480156103fe57600080fd5b5061030461040d3660046121d1565b61095b565b34801561041e57600080fd5b5061030461042d3660046122e8565b610976565b34801561043e57600080fd5b5061034661044d3660046122e8565b6109a9565b34801561045e57600080fd5b5061025f6109ca565b34801561047357600080fd5b506102d76104823660046122e8565b6109d3565b34801561049357600080fd5b506102aa610a08565b3480156104a857600080fd5b506104b1610a96565b60405161026c9190612c69565b3480156104ca57600080fd5b506102d7610a9f565b3480156104df57600080fd5b506103466104ee366004612185565b610aae565b61030461050136600461237b565b610af2565b34801561051257600080fd5b50610304610d04565b34801561052757600080fd5b506102d7610536366004612322565b610d54565b34801561054757600080fd5b5061025f610556366004612300565b610d73565b34801561056757600080fd5b506102aa610d9e565b34801561057c57600080fd5b50610346610dad565b34801561059157600080fd5b506103046105a0366004612285565b610db2565b3480156105b157600080fd5b50610346610e80565b3480156105c657600080fd5b50610346610e86565b3480156105db57600080fd5b506103046105ea36600461220c565b610eaa565b3480156105fb57600080fd5b506102aa61060a3660046122e8565b610ee9565b34801561061b57600080fd5b5061034661062a3660046122e8565b610ef4565b34801561063b57600080fd5b5061030461064a366004612300565b610f0b565b34801561065b57600080fd5b506102aa610f15565b34801561067057600080fd5b50610346610f22565b34801561068557600080fd5b506102d7610f28565b34801561069a57600080fd5b50610346610f37565b3480156106af57600080fd5b5061025f6106be36600461219f565b610f5b565b60008181526013602052604090205415155b919050565b60006106e582610fac565b92915050565b6060600080546106fa90612e30565b80601f016020809104026020016040519081016040528092919081815260200182805461072690612e30565b80156107735780601f1061074857610100808354040283529160200191610773565b820191906000526020600020905b81548152906001019060200180831161075657829003601f168201915b5050505050905090565b600061078882610fd1565b6107ad5760405162461bcd60e51b81526004016107a4906129bf565b60405180910390fd5b506000908152600460205260409020546001600160a01b031690565b60006107d4826109d3565b9050806001600160a01b0316836001600160a01b031614156108085760405162461bcd60e51b81526004016107a490612acc565b806001600160a01b031661081a610fee565b6001600160a01b031614806108365750610836816106be610fee565b6108525760405162461bcd60e51b81526004016107a4906127fb565b61085c8383610ff2565b505050565b61087261086c610fee565b82611060565b61088e5760405162461bcd60e51b81526004016107a490612b0d565b61085c8383836110e5565b60009081526008602052604090206001015490565b600d5481565b6108be8282611212565b600082815260096020526040902061085c9082610f97565b6108e08282611236565b600082815260096020526040902061085c9082611278565b600c5481565b60606106e582610ee9565b6109357f65d7a28e3265b37a6474929f336521b332c1681b933f6cb9f3376673440d862a610556610fee565b6109515760405162461bcd60e51b81526004016107a490612bae565b61095961128d565b565b61085c83838360405180602001604052806000815250610eaa565b61098161086c610fee565b61099d5760405162461bcd60e51b81526004016107a490612b5e565b6109a6816112fb565b50565b601481815481106109b957600080fd5b600091825260209091200154905081565b60075460ff1690565b6000818152600260205260408120546001600160a01b0316806106e55760405162461bcd60e51b81526004016107a4906128a2565b600e8054610a1590612e30565b80601f0160208091040260200160405190810160405280929190818152602001828054610a4190612e30565b8015610a8e5780601f10610a6357610100808354040283529160200191610a8e565b820191906000526020600020905b815481529060010190602001808311610a7157829003601f168201915b505050505081565b600b5460ff1681565b6011546001600160a01b031681565b60006001600160a01b038216610ad65760405162461bcd60e51b81526004016107a490612858565b506001600160a01b031660009081526003602052604090205490565b6014546000610aff610e86565b905080341015610b215760405162461bcd60e51b81526004016107a490612aa3565b600033610b2c610d9e565b86604051602001610b3f939291906123ff565b604051602081830303815290604052805190602001209050600a548160001c1115610b7c5760405162461bcd60e51b81526004016107a490612c32565b60006064600f5484610b8e9190612db7565b610b989190612c8f565b6011546040519192506001600160a01b03169082156108fc029083906000818181858888f19350505050158015610bd3573d6000803e3d6000fd5b506012546001600160a01b03166108fc610bed8386612dd6565b6040518115909202916000818181858888f19350505050158015610c15573d6000803e3d6000fd5b50336108fc610c248534612dd6565b6040518115909202916000818181858888f19350505050158015610c4c573d6000803e3d6000fd5b50600b54600090610c619060ff166002612ce9565b610c6b9084612e86565b60148054600181019091557fce6d7b5282bd9a3661ae061feed1dbda4e52ab073b1f9285be6e155d9c38d4ec0181905560008181526013602052604090208690559050610cb8338261137b565b610cc28587611395565b7f5f7666687319b40936f33c188908d86aea154abd3f4127b4fa0a3f04f303c7da8482604051610cf3929190612c5b565b60405180910390a150505050505050565b610d307f65d7a28e3265b37a6474929f336521b332c1681b933f6cb9f3376673440d862a610556610fee565b610d4c5760405162461bcd60e51b81526004016107a49061269c565b6109596113d9565b6000828152600960205260408120610d6c9083611434565b9392505050565b60009182526008602090815260408084206001600160a01b0393909316845291905290205460ff1690565b6060600180546106fa90612e30565b600081565b610dba610fee565b6001600160a01b0316826001600160a01b03161415610deb5760405162461bcd60e51b81526004016107a49061274e565b8060056000610df8610fee565b6001600160a01b03908116825260208083019390935260409182016000908120918716808252919093529120805460ff191692151592909217909155610e3c610fee565b6001600160a01b03167f17307eab39ab6107e8899845ad3d59bd9653f200f220920489ca2b5937696c3183604051610e749190612533565b60405180910390a35050565b600a5481565b601454600d54600091610e9891612db7565b600c54610ea59190612c77565b905090565b610ebb610eb5610fee565b83611060565b610ed75760405162461bcd60e51b81526004016107a490612b0d565b610ee384848484611440565b50505050565b60606106e582611473565b60008181526009602052604081206106e59061158c565b6108e08282611597565b60108054610a1590612e30565b600f5481565b6012546001600160a01b031681565b7f65d7a28e3265b37a6474929f336521b332c1681b933f6cb9f3376673440d862a81565b6001600160a01b03918216600090815260056020908152604080832093909416825291909152205460ff1690565b610f9382826115b6565b5050565b6000610d6c836001600160a01b03841661163d565b60006001600160e01b03198216635a05180f60e01b14806106e557506106e582611687565b6000908152600260205260409020546001600160a01b0316151590565b3390565b600081815260046020526040902080546001600160a01b0319166001600160a01b0384169081179091558190611027826109d3565b6001600160a01b03167f8c5be1e5ebec7d5bd14f71427d1e84f3dd0314c0f7b2291e5b200ac8c7c3b92560405160405180910390a45050565b600061106b82610fd1565b6110875760405162461bcd60e51b81526004016107a490612785565b6000611092836109d3565b9050806001600160a01b0316846001600160a01b031614806110cd5750836001600160a01b03166110c28461077d565b6001600160a01b0316145b806110dd57506110dd8185610f5b565b949350505050565b826001600160a01b03166110f8826109d3565b6001600160a01b03161461111e5760405162461bcd60e51b81526004016107a490612a0b565b6001600160a01b0382166111445760405162461bcd60e51b81526004016107a49061270a565b61114f8383836116ac565b61115a600082610ff2565b6001600160a01b0383166000908152600360205260408120805460019290611183908490612dd6565b90915550506001600160a01b03821660009081526003602052604081208054600192906111b1908490612c77565b909155505060008181526002602052604080822080546001600160a01b0319166001600160a01b0386811691821790925591518493918716917fddf252ad1be2c89b69c2b068fc378daa952ba7f163c4a11628f55a4df523b3ef91a4505050565b61121b82610899565b61122c81611227610fee565b6116b7565b61085c83836115b6565b61123e610fee565b6001600160a01b0316816001600160a01b03161461126e5760405162461bcd60e51b81526004016107a490612be3565b610f93828261171b565b6000610d6c836001600160a01b0384166117a0565b6112956109ca565b6112b15760405162461bcd60e51b81526004016107a49061261c565b6007805460ff191690557f5db9ee0a495bf2e6ff9c91a7834c1ba4fdd244a5e8aa4e537bd38aeae4b073aa6112e4610fee565b6040516112f191906124e2565b60405180910390a1565b60008181526013602052604081208190556014805490919061132d57634e487b7160e01b600052603260045260246000fd5b6000918252602082200155611341816118b7565b7f0c526103b8f47af5516191d0c89a598755bd00faa211a3cb52e4c2cc782f7fe281604051611370919061253e565b60405180910390a150565b610f938282604051806020016040528060008152506118f7565b61139e82610fd1565b6113ba5760405162461bcd60e51b81526004016107a4906128eb565b6000828152600660209081526040909120825161085c9284019061202d565b6113e16109ca565b156113fe5760405162461bcd60e51b81526004016107a4906127d1565b6007805460ff191660011790557f62e78cea01bee320cd4e420270b5ea74000d11b0c9f74754ebdbfc544b05a2586112e4610fee565b6000610d6c838361192a565b61144b8484846110e5565b61145784848484611983565b610ee35760405162461bcd60e51b81526004016107a49061264a565b606061147e82610fd1565b61149a5760405162461bcd60e51b81526004016107a49061296e565b600082815260066020526040812080546114b390612e30565b80601f01602080910402602001604051908101604052809291908181526020018280546114df90612e30565b801561152c5780601f106115015761010080835404028352916020019161152c565b820191906000526020600020905b81548152906001019060200180831161150f57829003601f168201915b50505050509050600061153d611a9e565b9050805160001415611551575090506106d5565b81511561158357808260405160200161156b92919061243e565b604051602081830303815290604052925050506106d5565b6110dd84611aad565b60006106e582611b2f565b6115a082610899565b6115ac81611227610fee565b61085c838361171b565b6115c08282610d73565b610f935760008281526008602090815260408083206001600160a01b03851684529091529020805460ff191660011790556115f9610fee565b6001600160a01b0316816001600160a01b0316837f2f8788117e7eff1d82e926ec794901d17c78024a50270940304540a733656f0d60405160405180910390a45050565b60006116498383611b33565b61167f575081546001818101845560008481526020808220909301849055845484825282860190935260409020919091556106e5565b5060006106e5565b60006001600160e01b03198216637965db0b60e01b14806106e557506106e582611b4b565b61085c838383611b8b565b6116c18282610d73565b610f93576116d9816001600160a01b03166014611bbb565b6116e4836020611bbb565b6040516020016116f592919061246d565b60408051601f198184030181529082905262461bcd60e51b82526107a491600401612547565b6117258282610d73565b15610f935760008281526008602090815260408083206001600160a01b03851684529091529020805460ff1916905561175c610fee565b6001600160a01b0316816001600160a01b0316837ff6391f5c32d9c69d2a47ea670b442974b53935d1edc7fd64eb21e047a839171b60405160405180910390a45050565b600081815260018301602052604081205480156118ad5760006117c4600183612dd6565b85549091506000906117d890600190612dd6565b905060008660000182815481106117ff57634e487b7160e01b600052603260045260246000fd5b906000526020600020015490508087600001848154811061183057634e487b7160e01b600052603260045260246000fd5b60009182526020808320909101929092558281526001890190915260409020849055865487908061187157634e487b7160e01b600052603160045260246000fd5b600190038181906000526020600020016000905590558660010160008781526020019081526020016000206000905560019450505050506106e5565b60009150506106e5565b6118c081611d6d565b600081815260066020526040902080546118d990612e30565b1590506109a65760008181526006602052604081206109a6916120b1565b6119018383611e14565b61190e6000848484611983565b61085c5760405162461bcd60e51b81526004016107a49061264a565b8154600090821061194d5760405162461bcd60e51b81526004016107a49061255a565b82600001828154811061197057634e487b7160e01b600052603260045260246000fd5b9060005260206000200154905092915050565b6000611997846001600160a01b0316611ef3565b15611a9357836001600160a01b031663150b7a026119b3610fee565b8786866040518563ffffffff1660e01b81526004016119d594939291906124f6565b602060405180830381600087803b1580156119ef57600080fd5b505af1925050508015611a1f575060408051601f3d908101601f19168201909252611a1c9181019061235f565b60015b611a79573d808015611a4d576040519150601f19603f3d011682016040523d82523d6000602084013e611a52565b606091505b508051611a715760405162461bcd60e51b81526004016107a49061264a565b805181602001fd5b6001600160e01b031916630a85bd0160e11b1490506110dd565b506001949350505050565b6060601080546106fa90612e30565b6060611ab882610fd1565b611ad45760405162461bcd60e51b81526004016107a490612a54565b6000611ade611a9e565b90506000815111611afe5760405180602001604052806000815250610d6c565b80611b0884611ef9565b604051602001611b1992919061243e565b6040516020818303038152906040529392505050565b5490565b60009081526001919091016020526040902054151590565b60006001600160e01b031982166380ac58cd60e01b1480611b7c57506001600160e01b03198216635b5e139f60e01b145b806106e557506106e582612014565b611b9683838361085c565b611b9e6109ca565b1561085c5760405162461bcd60e51b81526004016107a4906125d1565b60606000611bca836002612db7565b611bd5906002612c77565b67ffffffffffffffff811115611bfb57634e487b7160e01b600052604160045260246000fd5b6040519080825280601f01601f191660200182016040528015611c25576020820181803683370190505b509050600360fc1b81600081518110611c4e57634e487b7160e01b600052603260045260246000fd5b60200101906001600160f81b031916908160001a905350600f60fb1b81600181518110611c8b57634e487b7160e01b600052603260045260246000fd5b60200101906001600160f81b031916908160001a9053506000611caf846002612db7565b611cba906001612c77565b90505b6001811115611d4e576f181899199a1a9b1b9c1cb0b131b232b360811b85600f1660108110611cfc57634e487b7160e01b600052603260045260246000fd5b1a60f81b828281518110611d2057634e487b7160e01b600052603260045260246000fd5b60200101906001600160f81b031916908160001a90535060049490941c93611d4781612e19565b9050611cbd565b508315610d6c5760405162461bcd60e51b81526004016107a49061259c565b6000611d78826109d3565b9050611d86816000846116ac565b611d91600083610ff2565b6001600160a01b0381166000908152600360205260408120805460019290611dba908490612dd6565b909155505060008281526002602052604080822080546001600160a01b0319169055518391906001600160a01b038416907fddf252ad1be2c89b69c2b068fc378daa952ba7f163c4a11628f55a4df523b3ef908390a45050565b6001600160a01b038216611e3a5760405162461bcd60e51b81526004016107a490612939565b611e4381610fd1565b15611e605760405162461bcd60e51b81526004016107a4906126d3565b611e6c600083836116ac565b6001600160a01b0382166000908152600360205260408120805460019290611e95908490612c77565b909155505060008181526002602052604080822080546001600160a01b0319166001600160a01b03861690811790915590518392907fddf252ad1be2c89b69c2b068fc378daa952ba7f163c4a11628f55a4df523b3ef908290a45050565b3b151590565b606081611f1e57506040805180820190915260018152600360fc1b60208201526106d5565b8160005b8115611f485780611f3281612e6b565b9150611f419050600a83612c8f565b9150611f22565b60008167ffffffffffffffff811115611f7157634e487b7160e01b600052604160045260246000fd5b6040519080825280601f01601f191660200182016040528015611f9b576020820181803683370190505b5090505b84156110dd57611fb0600183612dd6565b9150611fbd600a86612e86565b611fc8906030612c77565b60f81b818381518110611feb57634e487b7160e01b600052603260045260246000fd5b60200101906001600160f81b031916908160001a90535061200d600a86612c8f565b9450611f9f565b6001600160e01b031981166301ffc9a760e01b14919050565b82805461203990612e30565b90600052602060002090601f01602090048101928261205b57600085556120a1565b82601f1061207457805160ff19168380011785556120a1565b828001600101855582156120a1579182015b828111156120a1578251825591602001919060010190612086565b506120ad9291506120e9565b5090565b5080546120bd90612e30565b6000825580601f106120cf57506109a6565b601f0160209004906000526020600020908101906109a691905b5b808211156120ad57600081556001016120ea565b600067ffffffffffffffff8084111561211957612119612ec6565b604051601f8501601f19168101602001828111828210171561213d5761213d612ec6565b60405284815291508183850186101561215557600080fd5b8484602083013760006020868301015250509392505050565b80356001600160a01b03811681146106d557600080fd5b600060208284031215612196578081fd5b610d6c8261216e565b600080604083850312156121b1578081fd5b6121ba8361216e565b91506121c86020840161216e565b90509250929050565b6000806000606084860312156121e5578081fd5b6121ee8461216e565b92506121fc6020850161216e565b9150604084013590509250925092565b60008060008060808587031215612221578081fd5b61222a8561216e565b93506122386020860161216e565b925060408501359150606085013567ffffffffffffffff81111561225a578182fd5b8501601f8101871361226a578182fd5b612279878235602084016120fe565b91505092959194509250565b60008060408385031215612297578182fd5b6122a08361216e565b9150602083013580151581146122b4578182fd5b809150509250929050565b600080604083850312156122d1578182fd5b6122da8361216e565b946020939093013593505050565b6000602082840312156122f9578081fd5b5035919050565b60008060408385031215612312578182fd5b823591506121c86020840161216e565b60008060408385031215612334578182fd5b50508035926020909101359150565b600060208284031215612354578081fd5b8135610d6c81612edc565b600060208284031215612370578081fd5b8151610d6c81612edc565b6000806040838503121561238d578182fd5b82359150602083013567ffffffffffffffff8111156123aa578182fd5b8301601f810185136123ba578182fd5b6123c9858235602084016120fe565b9150509250929050565b600081518084526123eb816020860160208601612ded565b601f01601f19169290920160200192915050565b60006bffffffffffffffffffffffff198560601b1682528351612429816014850160208801612ded565b60149201918201929092526034019392505050565b60008351612450818460208801612ded565b835190830190612464818360208801612ded565b01949350505050565b60007f416363657373436f6e74726f6c3a206163636f756e7420000000000000000000825283516124a5816017850160208801612ded565b7001034b99036b4b9b9b4b733903937b6329607d1b60179184019182015283516124d6816028840160208801612ded565b01602801949350505050565b6001600160a01b0391909116815260200190565b6001600160a01b0385811682528416602082015260408101839052608060608201819052600090612529908301846123d3565b9695505050505050565b901515815260200190565b90815260200190565b600060208252610d6c60208301846123d3565b60208082526022908201527f456e756d657261626c655365743a20696e646578206f7574206f6620626f756e604082015261647360f01b606082015260800190565b6020808252818101527f537472696e67733a20686578206c656e67746820696e73756666696369656e74604082015260600190565b6020808252602b908201527f4552433732315061757361626c653a20746f6b656e207472616e73666572207760408201526a1a1a5b19481c185d5cd95960aa1b606082015260800190565b60208082526014908201527314185d5cd8589b194e881b9bdd081c185d5cd95960621b604082015260600190565b60208082526032908201527f4552433732313a207472616e7366657220746f206e6f6e20455243373231526560408201527131b2b4bb32b91034b6b83632b6b2b73a32b960711b606082015260800190565b6020808252601e908201527f6d75737420686176652070617573657220726f6c6520746f2070617573650000604082015260600190565b6020808252601c908201527f4552433732313a20746f6b656e20616c7265616479206d696e74656400000000604082015260600190565b60208082526024908201527f4552433732313a207472616e7366657220746f20746865207a65726f206164646040820152637265737360e01b606082015260800190565b60208082526019908201527f4552433732313a20617070726f766520746f2063616c6c657200000000000000604082015260600190565b6020808252602c908201527f4552433732313a206f70657261746f7220717565727920666f72206e6f6e657860408201526b34b9ba32b73a103a37b5b2b760a11b606082015260800190565b60208082526010908201526f14185d5cd8589b194e881c185d5cd95960821b604082015260600190565b60208082526038908201527f4552433732313a20617070726f76652063616c6c6572206973206e6f74206f7760408201527f6e6572206e6f7220617070726f76656420666f7220616c6c0000000000000000606082015260800190565b6020808252602a908201527f4552433732313a2062616c616e636520717565727920666f7220746865207a65604082015269726f206164647265737360b01b606082015260800190565b60208082526029908201527f4552433732313a206f776e657220717565727920666f72206e6f6e657869737460408201526832b73a103a37b5b2b760b91b606082015260800190565b6020808252602e908201527f45524337323155524953746f726167653a2055524920736574206f66206e6f6e60408201526d32bc34b9ba32b73a103a37b5b2b760911b606082015260800190565b6020808252818101527f4552433732313a206d696e7420746f20746865207a65726f2061646472657373604082015260600190565b60208082526031908201527f45524337323155524953746f726167653a2055524920717565727920666f72206040820152703737b732bc34b9ba32b73a103a37b5b2b760791b606082015260800190565b6020808252602c908201527f4552433732313a20617070726f76656420717565727920666f72206e6f6e657860408201526b34b9ba32b73a103a37b5b2b760a11b606082015260800190565b60208082526029908201527f4552433732313a207472616e73666572206f6620746f6b656e2074686174206960408201526839903737ba1037bbb760b91b606082015260800190565b6020808252602f908201527f4552433732314d657461646174613a2055524920717565727920666f72206e6f60408201526e3732bc34b9ba32b73a103a37b5b2b760891b606082015260800190565b6020808252600f908201526e1b9bdd08195b9bdd59da081c185a59608a1b604082015260600190565b60208082526021908201527f4552433732313a20617070726f76616c20746f2063757272656e74206f776e656040820152603960f91b606082015260800190565b60208082526031908201527f4552433732313a207472616e736665722063616c6c6572206973206e6f74206f6040820152701ddb995c881b9bdc88185c1c1c9bdd9959607a1b606082015260800190565b60208082526030908201527f4552433732314275726e61626c653a2063616c6c6572206973206e6f74206f7760408201526f1b995c881b9bdc88185c1c1c9bdd995960821b606082015260800190565b6020808252818101527f6d75737420686176652070617573657220726f6c6520746f20756e7061757365604082015260600190565b6020808252602f908201527f416363657373436f6e74726f6c3a2063616e206f6e6c792072656e6f756e636560408201526e103937b632b9903337b91039b2b63360891b606082015260800190565b6020808252600f908201526e6e6f7420656e6f75676820776f726b60881b604082015260600190565b918252602082015260400190565b60ff91909116815260200190565b60008219821115612c8a57612c8a612e9a565b500190565b600082612c9e57612c9e612eb0565b500490565b80825b6001808611612cb55750612ce0565b818704821115612cc757612cc7612e9a565b80861615612cd457918102915b9490941c938002612ca6565b94509492505050565b6000610d6c6000198484600082612d0257506001610d6c565b81612d0f57506000610d6c565b8160018114612d255760028114612d2f57612d5c565b6001915050610d6c565b60ff841115612d4057612d40612e9a565b6001841b915084821115612d5657612d56612e9a565b50610d6c565b5060208310610133831016604e8410600b8410161715612d8f575081810a83811115612d8a57612d8a612e9a565b610d6c565b612d9c8484846001612ca3565b808604821115612dae57612dae612e9a565b02949350505050565b6000816000190483118215151615612dd157612dd1612e9a565b500290565b600082821015612de857612de8612e9a565b500390565b60005b83811015612e08578181015183820152602001612df0565b83811115610ee35750506000910152565b600081612e2857612e28612e9a565b506000190190565b600281046001821680612e4457607f821691505b60208210811415612e6557634e487b7160e01b600052602260045260246000fd5b50919050565b6000600019821415612e7f57612e7f612e9a565b5060010190565b600082612e9557612e95612eb0565b500690565b634e487b7160e01b600052601160045260246000fd5b634e487b7160e01b600052601260045260246000fd5b634e487b7160e01b600052604160045260246000fd5b6001600160e01b0319811681146109a657600080fdfea264697066735822122063a1aba771156f9b3a0ae913fd0cb7118d38c4da1e5cc79fadd5adb3659972a764736f6c6343000800003365d7a28e3265b37a6474929f336521b332c1681b933f6cb9f3376673440d862aa2646970667358221220ad9d4d1cec3955536ab1852effe516f905f453af3ab8e0fbbc1fc6c80136db2b64736f6c63430008000033",
  "immutableReferences": {},
  "source": "// SPDX-License-Identifier: MIT\r\n\r\npragma solidity ^0.8.0;\r\n\r\nimport \"@openzeppelin/contracts/access/Ownable.sol\";\r\nimport \"./Genft.sol\";\r\n\r\ncontract GenftFactory is Ownable {\r\n    Genft[] public instances;\r\n    event InstanceCreated(address indexed _from, address indexed _instance);\r\n    address walletAddress;\r\n\r\n    function get(\r\n        string memory _tokenName,\r\n        string memory _tokenSymbol,\r\n        uint8 _minimumDifficultyBits,\r\n        uint8 _genomeBitLength,\r\n        uint256 _firstPrice,\r\n        uint256 _priceIncrement,\r\n        string memory _baseTokenURI,\r\n        string memory _uiConfigUri,\r\n        uint256 _commissionPercentage\r\n    ) external {\r\n        // TODO make and pass a payment splitter (https://docs.openzeppelin.com/contracts/2.x/api/payment)\r\n\r\n        Genft instance = new Genft(\r\n            _tokenName,\r\n            _tokenSymbol,\r\n            _minimumDifficultyBits,\r\n            _genomeBitLength,\r\n            _firstPrice,\r\n            _priceIncrement,\r\n            _baseTokenURI,\r\n            _uiConfigUri,\r\n            walletAddress,\r\n            _commissionPercentage\r\n        );\r\n        instances.push(instance);\r\n        emit InstanceCreated(msg.sender, address(instance));\r\n    }\r\n\r\n    function setWalletAddress(address addr) public onlyOwner {\r\n        walletAddress = addr;\r\n    }\r\n\r\n}",
  "sourcePath": "C:/Users/morgan/WebstormProjects/genft/contracts/GenftFactory.sol",
  "compiler": {
    "name": "solc",
    "version": "0.8.0+commit.c7dfd78e.Emscripten.clang"
  },
  "schemaVersion": "3.3.4",
  "updatedAt": "2021-05-30T04:43:34.705Z",
  "networkType": "ethereum",
  "devdoc": {
    "kind": "dev",
    "methods": {
      "owner()": {
        "details": "Returns the address of the current owner."
      },
      "renounceOwnership()": {
        "details": "Leaves the contract without owner. It will not be possible to call `onlyOwner` functions anymore. Can only be called by the current owner. NOTE: Renouncing ownership will leave the contract without an owner, thereby removing any functionality that is only available to the owner."
      },
      "transferOwnership(address)": {
        "details": "Transfers ownership of the contract to a new account (`newOwner`). Can only be called by the current owner."
      }
    },
    "version": 1
  },
  "userdoc": {
    "kind": "user",
    "methods": {},
    "version": 1
  }
}